S01100005745456B332D4C43442E7372656394
S11300000C942A000C943F000C943F000C943F0085
S11300100C943F000C943F000C943F000C943F0060
S11300200C943F000C943F000C943F000C943F0050
S11300300C943F000C943F000C943F000C943F0040
S11300400C943F000C943F000C943F000C943F0030
S11300500C943F0011241FBECFE5D4E0DEBFCDBF1A
S113006010E0A0E6B0E0E2EDF1E002C005900D92F0
S1130070A037B107D9F70E94D2000C94E7000C9482
S1130080000090E49BBB88BB8FEC97E00197F1F7ED
S113009000C000001BBA8FEC97E00197F1F700C095
S11300A00000089588E30E9441008FEC97E00197D7
S11300B0F1F700C0000081E00E9441008FEC97E05E
S11300C00197F1F700C0000086E00E9441008FEC28
S11300D097E00197F1F700C000008EE00E94410014
S11300E08FEC97E00197F1F700C00000089590ECC1
S11300F09BBB88BB8FEC97E00197F1F700C0000031
S113010080E88BBB8FEC97E00197F1F700C000000B
S113011008950F931F93CF93DF938C01C0E1D0E038
S113012004C084E10E94410021971C161D06CCF3F3
S1130130C0E0D0E003C00E9477002196F801EC0FE4
S1130140FD1F80818111F7CFC0E0D0E00DC088E1B0
S11301500E9441002FEF80E792E0215080409040C0
S1130160E1F700C000002196F801EC0FFD1F80812B
S11301708111EDCFC0E0D0E00DC088E10E944100C4
S11301802FEF80E792E0215080409040E1F700C0DB
S113019000002196C031D10584F3DF91CF911F91E6
S11301A00F9108958FEF87BB8ABB0E9452008FE0A6
S11301B097E20197F1F700C000008CE00E94410033
S11301C080E690E00E94890080E090E00895F89431
S10501D0FFCF5B
S11301D2435345203232204D6F68616D65640000DF
S9030000FC
